{
    "_format": "hh-sol-artifact-1",
    "contractName": "UserPreferencesAndReviews",
    "sourceName": "contracts/Food.sol",
    "abi": [
        {
            "anonymous": false,
            "inputs": [
                {
                    "indexed": true,
                    "internalType": "address",
                    "name": "user",
                    "type": "address"
                },
                {
                    "indexed": false,
                    "internalType": "string",
                    "name": "preferences",
                    "type": "string"
                }
            ],
            "name": "PreferencesUpdated",
            "type": "event"
        },
        {
            "anonymous": false,
            "inputs": [
                {
                    "indexed": true,
                    "internalType": "address",
                    "name": "user",
                    "type": "address"
                },
                {
                    "indexed": false,
                    "internalType": "uint8",
                    "name": "rating",
                    "type": "uint8"
                },
                {
                    "indexed": false,
                    "internalType": "string",
                    "name": "comment",
                    "type": "string"
                },
                {
                    "indexed": false,
                    "internalType": "uint8",
                    "name": "confidenceScore",
                    "type": "uint8"
                }
            ],
            "name": "ReviewSubmitted",
            "type": "event"
        },
        {
            "inputs": [
                {
                    "internalType": "address",
                    "name": "_user",
                    "type": "address"
                }
            ],
            "name": "getUserPreferences",
            "outputs": [
                {
                    "internalType": "string",
                    "name": "",
                    "type": "string"
                }
            ],
            "stateMutability": "view",
            "type": "function"
        },
        {
            "inputs": [
                {
                    "internalType": "address",
                    "name": "_user",
                    "type": "address"
                }
            ],
            "name": "getUserReview",
            "outputs": [
                {
                    "internalType": "uint8",
                    "name": "",
                    "type": "uint8"
                },
                {
                    "internalType": "string",
                    "name": "",
                    "type": "string"
                },
                {
                    "internalType": "uint8",
                    "name": "",
                    "type": "uint8"
                }
            ],
            "stateMutability": "view",
            "type": "function"
        },
        {
            "inputs": [
                {
                    "internalType": "address",
                    "name": "_user",
                    "type": "address"
                }
            ],
            "name": "hasPreferences",
            "outputs": [
                {
                    "internalType": "bool",
                    "name": "",
                    "type": "bool"
                }
            ],
            "stateMutability": "view",
            "type": "function"
        },
        {
            "inputs": [
                {
                    "internalType": "address",
                    "name": "_user",
                    "type": "address"
                }
            ],
            "name": "hasReview",
            "outputs": [
                {
                    "internalType": "bool",
                    "name": "",
                    "type": "bool"
                }
            ],
            "stateMutability": "view",
            "type": "function"
        },
        {
            "inputs": [
                {
                    "internalType": "string",
                    "name": "_preferences",
                    "type": "string"
                }
            ],
            "name": "setUserPreferences",
            "outputs": [],
            "stateMutability": "nonpayable",
            "type": "function"
        },
        {
            "inputs": [
                {
                    "internalType": "uint8",
                    "name": "_rating",
                    "type": "uint8"
                },
                {
                    "internalType": "string",
                    "name": "_comment",
                    "type": "string"
                },
                {
                    "internalType": "uint8",
                    "name": "_confidenceScore",
                    "type": "uint8"
                }
            ],
            "name": "submitReview",
            "outputs": [],
            "stateMutability": "nonpayable",
            "type": "function"
        },
        {
            "inputs": [
                {
                    "internalType": "address",
                    "name": "",
                    "type": "address"
                }
            ],
            "name": "userPreferences",
            "outputs": [
                {
                    "internalType": "string",
                    "name": "",
                    "type": "string"
                }
            ],
            "stateMutability": "view",
            "type": "function"
        },
        {
            "inputs": [
                {
                    "internalType": "address",
                    "name": "",
                    "type": "address"
                }
            ],
            "name": "userReviews",
            "outputs": [
                {
                    "internalType": "uint8",
                    "name": "rating",
                    "type": "uint8"
                },
                {
                    "internalType": "string",
                    "name": "comment",
                    "type": "string"
                },
                {
                    "internalType": "uint8",
                    "name": "confidenceScore",
                    "type": "uint8"
                }
            ],
            "stateMutability": "view",
            "type": "function"
        }
    ],
    "bytecode": "0x608060405234801561001057600080fd5b50611089806100206000396000f3fe608060405234801561001057600080fd5b50600436106100885760003560e01c80636793bcbf1161005b5780636793bcbf1461014f57806368c5a86f1461017f578063a93006691461019b578063c75ee8ce146101cd57610088565b806321d35e4e1461008d57806324cf53f8146100bd578063272b500d146100ef57806335b123331461011f575b600080fd5b6100a760048036038101906100a291906108e5565b6101e9565b6040516100b4919061092d565b60405180910390f35b6100d760048036038101906100d291906108e5565b610248565b6040516100e6939291906109f4565b60405180910390f35b610109600480360381019061010491906108e5565b610384565b604051610116919061092d565b60405180910390f35b610139600480360381019061013491906108e5565b6103da565b6040516101469190610a32565b60405180910390f35b610169600480360381019061016491906108e5565b6104aa565b6040516101769190610a32565b60405180910390f35b61019960048036038101906101949190610b89565b61054a565b005b6101b560048036038101906101b091906108e5565b6105e7565b6040516101c4939291906109f4565b60405180910390f35b6101e760048036038101906101e29190610bfe565b6106b3565b005b600080600160008473ffffffffffffffffffffffffffffffffffffffff1673ffffffffffffffffffffffffffffffffffffffff16815260200190815260200160002060000160009054906101000a900460ff1660ff1614159050919050565b60006060600080600160008673ffffffffffffffffffffffffffffffffffffffff1673ffffffffffffffffffffffffffffffffffffffff1681526020019081526020016000206040518060600160405290816000820160009054906101000a900460ff1660ff1660ff1681526020016001820180546102c690610c9c565b80601f01602080910402602001604051908101604052809291908181526020018280546102f290610c9c565b801561033f5780601f106103145761010080835404028352916020019161033f565b820191906000526020600020905b81548152906001019060200180831161032257829003601f168201915b505050505081526020016002820160009054906101000a900460ff1660ff1660ff16815250509050806000015181602001518260400151935093509350509193909250565b6000806000808473ffffffffffffffffffffffffffffffffffffffff1673ffffffffffffffffffffffffffffffffffffffff16815260200190815260200160002080546103d090610c9c565b9050119050919050565b60606000808373ffffffffffffffffffffffffffffffffffffffff1673ffffffffffffffffffffffffffffffffffffffff168152602001908152602001600020805461042590610c9c565b80601f016020809104026020016040519081016040528092919081815260200182805461045190610c9c565b801561049e5780601f106104735761010080835404028352916020019161049e565b820191906000526020600020905b81548152906001019060200180831161048157829003601f168201915b50505050509050919050565b600060205280600052604060002060009150905080546104c990610c9c565b80601f01602080910402602001604051908101604052809291908181526020018280546104f590610c9c565b80156105425780601f1061051757610100808354040283529160200191610542565b820191906000526020600020905b81548152906001019060200180831161052557829003601f168201915b505050505081565b806000803373ffffffffffffffffffffffffffffffffffffffff1673ffffffffffffffffffffffffffffffffffffffff16815260200190815260200160002090816105959190610e83565b503373ffffffffffffffffffffffffffffffffffffffff167f5af3a91d2bbb1a681f7ead6dd05d4fa4888999cfd501c28bcfb008c8a8865fe1826040516105dc9190610a32565b60405180910390a250565b60016020528060005260406000206000915090508060000160009054906101000a900460ff169080600101805461061d90610c9c565b80601f016020809104026020016040519081016040528092919081815260200182805461064990610c9c565b80156106965780601f1061066b57610100808354040283529160200191610696565b820191906000526020600020905b81548152906001019060200180831161067957829003601f168201915b5050505050908060020160009054906101000a900460ff16905083565b60018360ff16101580156106cb575060058360ff1611155b61070a576040517f08c379a000000000000000000000000000000000000000000000000000000000815260040161070190610fa1565b60405180910390fd5b60008160ff1610158015610722575060648160ff1611155b610761576040517f08c379a000000000000000000000000000000000000000000000000000000000815260040161075890611033565b60405180910390fd5b60405180606001604052808460ff1681526020018381526020018260ff16815250600160003373ffffffffffffffffffffffffffffffffffffffff1673ffffffffffffffffffffffffffffffffffffffff16815260200190815260200160002060008201518160000160006101000a81548160ff021916908360ff16021790555060208201518160010190816107f79190610e83565b5060408201518160020160006101000a81548160ff021916908360ff1602179055509050503373ffffffffffffffffffffffffffffffffffffffff167fc3907f2bb9609021d84f3bc658c685bd99098e272573394f23894f439a3f37a0848484604051610866939291906109f4565b60405180910390a2505050565b6000604051905090565b600080fd5b600080fd5b600073ffffffffffffffffffffffffffffffffffffffff82169050919050565b60006108b282610887565b9050919050565b6108c2816108a7565b81146108cd57600080fd5b50565b6000813590506108df816108b9565b92915050565b6000602082840312156108fb576108fa61087d565b5b6000610909848285016108d0565b91505092915050565b60008115159050919050565b61092781610912565b82525050565b6000602082019050610942600083018461091e565b92915050565b600060ff82169050919050565b61095e81610948565b82525050565b600081519050919050565b600082825260208201905092915050565b60005b8381101561099e578082015181840152602081019050610983565b60008484015250505050565b6000601f19601f8301169050919050565b60006109c682610964565b6109d0818561096f565b93506109e0818560208601610980565b6109e9816109aa565b840191505092915050565b6000606082019050610a096000830186610955565b8181036020830152610a1b81856109bb565b9050610a2a6040830184610955565b949350505050565b60006020820190508181036000830152610a4c81846109bb565b905092915050565b600080fd5b600080fd5b7f4e487b7100000000000000000000000000000000000000000000000000000000600052604160045260246000fd5b610a96826109aa565b810181811067ffffffffffffffff82111715610ab557610ab4610a5e565b5b80604052505050565b6000610ac8610873565b9050610ad48282610a8d565b919050565b600067ffffffffffffffff821115610af457610af3610a5e565b5b610afd826109aa565b9050602081019050919050565b82818337600083830152505050565b6000610b2c610b2784610ad9565b610abe565b905082815260208101848484011115610b4857610b47610a59565b5b610b53848285610b0a565b509392505050565b600082601f830112610b7057610b6f610a54565b5b8135610b80848260208601610b19565b91505092915050565b600060208284031215610b9f57610b9e61087d565b5b600082013567ffffffffffffffff811115610bbd57610bbc610882565b5b610bc984828501610b5b565b91505092915050565b610bdb81610948565b8114610be657600080fd5b50565b600081359050610bf881610bd2565b92915050565b600080600060608486031215610c1757610c1661087d565b5b6000610c2586828701610be9565b935050602084013567ffffffffffffffff811115610c4657610c45610882565b5b610c5286828701610b5b565b9250506040610c6386828701610be9565b9150509250925092565b7f4e487b7100000000000000000000000000000000000000000000000000000000600052602260045260246000fd5b60006002820490506001821680610cb457607f821691505b602082108103610cc757610cc6610c6d565b5b50919050565b60008190508160005260206000209050919050565b60006020601f8301049050919050565b600082821b905092915050565b600060088302610d2f7fffffffffffffffffffffffffffffffffffffffffffffffffffffffffffffffff82610cf2565b610d398683610cf2565b95508019841693508086168417925050509392505050565b6000819050919050565b6000819050919050565b6000610d80610d7b610d7684610d51565b610d5b565b610d51565b9050919050565b6000819050919050565b610d9a83610d65565b610dae610da682610d87565b848454610cff565b825550505050565b600090565b610dc3610db6565b610dce818484610d91565b505050565b5b81811015610df257610de7600082610dbb565b600181019050610dd4565b5050565b601f821115610e3757610e0881610ccd565b610e1184610ce2565b81016020851015610e20578190505b610e34610e2c85610ce2565b830182610dd3565b50505b505050565b600082821c905092915050565b6000610e5a60001984600802610e3c565b1980831691505092915050565b6000610e738383610e49565b9150826002028217905092915050565b610e8c82610964565b67ffffffffffffffff811115610ea557610ea4610a5e565b5b610eaf8254610c9c565b610eba828285610df6565b600060209050601f831160018114610eed5760008415610edb578287015190505b610ee58582610e67565b865550610f4d565b601f198416610efb86610ccd565b60005b82811015610f2357848901518255600182019150602085019450602081019050610efe565b86831015610f405784890151610f3c601f891682610e49565b8355505b6001600288020188555050505b505050505050565b7f526174696e67206d757374206265206265747765656e203120616e6420350000600082015250565b6000610f8b601e8361096f565b9150610f9682610f55565b602082019050919050565b60006020820190508181036000830152610fba81610f7e565b9050919050565b7f436f6e666964656e63652073636f7265206d757374206265206265747765656e60008201527f203020616e642031303000000000000000000000000000000000000000000000602082015250565b600061101d602a8361096f565b915061102882610fc1565b604082019050919050565b6000602082019050818103600083015261104c81611010565b905091905056fea2646970667358221220a82c18ecf8427f3efb11c9ed63d062ec0deb5fc1984eec1428f180d19421affa64736f6c63430008120033",
    "linkReferences": {},
    "deployedLinkReferences": {}
}